{
  "contractName": "heroledger",
  "abi": [
    {
      "anonymous": false,
      "inputs": [
        {
          "indexed": false,
          "internalType": "uint256",
          "name": "productId",
          "type": "uint256"
        },
        {
          "indexed": false,
          "internalType": "string",
          "name": "productName",
          "type": "string"
        },
        {
          "indexed": false,
          "internalType": "string",
          "name": "licensor",
          "type": "string"
        },
        {
          "indexed": false,
          "internalType": "string",
          "name": "licensee",
          "type": "string"
        },
        {
          "indexed": false,
          "internalType": "address payable",
          "name": "ownerAddress",
          "type": "address"
        },
        {
          "indexed": false,
          "internalType": "uint256",
          "name": "licenseFee",
          "type": "uint256"
        },
        {
          "indexed": false,
          "internalType": "uint256",
          "name": "term1StartDate",
          "type": "uint256"
        },
        {
          "indexed": false,
          "internalType": "uint256",
          "name": "term1EndDate",
          "type": "uint256"
        },
        {
          "indexed": false,
          "internalType": "string",
          "name": "term2",
          "type": "string"
        }
      ],
      "name": "licenseCreated",
      "type": "event"
    },
    {
      "anonymous": false,
      "inputs": [
        {
          "indexed": false,
          "internalType": "uint256",
          "name": "productId",
          "type": "uint256"
        },
        {
          "indexed": false,
          "internalType": "string",
          "name": "licensorMail",
          "type": "string"
        },
        {
          "indexed": false,
          "internalType": "string",
          "name": "licenseeMail",
          "type": "string"
        },
        {
          "indexed": false,
          "internalType": "uint256",
          "name": "timestamp",
          "type": "uint256"
        }
      ],
      "name": "licensePurchased",
      "type": "event"
    },
    {
      "anonymous": false,
      "inputs": [
        {
          "indexed": false,
          "internalType": "uint256",
          "name": "productId",
          "type": "uint256"
        },
        {
          "indexed": false,
          "internalType": "string",
          "name": "productName",
          "type": "string"
        },
        {
          "indexed": false,
          "internalType": "string",
          "name": "productType",
          "type": "string"
        },
        {
          "indexed": false,
          "internalType": "string",
          "name": "originator",
          "type": "string"
        },
        {
          "indexed": false,
          "internalType": "string",
          "name": "ownerEmail",
          "type": "string"
        },
        {
          "indexed": false,
          "internalType": "uint256",
          "name": "timestamp",
          "type": "uint256"
        },
        {
          "indexed": false,
          "internalType": "uint256",
          "name": "price",
          "type": "uint256"
        },
        {
          "indexed": false,
          "internalType": "address payable",
          "name": "owner",
          "type": "address"
        },
        {
          "indexed": false,
          "internalType": "bool",
          "name": "inStore",
          "type": "bool"
        },
        {
          "indexed": false,
          "internalType": "bool",
          "name": "license",
          "type": "bool"
        }
      ],
      "name": "productCreated",
      "type": "event"
    },
    {
      "anonymous": false,
      "inputs": [
        {
          "indexed": false,
          "internalType": "uint256",
          "name": "productId",
          "type": "uint256"
        },
        {
          "indexed": false,
          "internalType": "uint256",
          "name": "price",
          "type": "uint256"
        },
        {
          "indexed": false,
          "internalType": "bool",
          "name": "inStore",
          "type": "bool"
        },
        {
          "indexed": false,
          "internalType": "bool",
          "name": "license",
          "type": "bool"
        }
      ],
      "name": "productEdited",
      "type": "event"
    },
    {
      "anonymous": false,
      "inputs": [
        {
          "indexed": false,
          "internalType": "uint256",
          "name": "productId",
          "type": "uint256"
        },
        {
          "indexed": false,
          "internalType": "string",
          "name": "ownerEmail",
          "type": "string"
        },
        {
          "indexed": false,
          "internalType": "uint256",
          "name": "timestamp",
          "type": "uint256"
        },
        {
          "indexed": false,
          "internalType": "bool",
          "name": "inStore",
          "type": "bool"
        }
      ],
      "name": "productPurchased",
      "type": "event"
    },
    {
      "constant": true,
      "inputs": [],
      "name": "licenseProductCount",
      "outputs": [
        {
          "internalType": "uint256",
          "name": "",
          "type": "uint256"
        }
      ],
      "payable": false,
      "stateMutability": "view",
      "type": "function"
    },
    {
      "constant": true,
      "inputs": [
        {
          "internalType": "uint256",
          "name": "",
          "type": "uint256"
        }
      ],
      "name": "licensedProducts",
      "outputs": [
        {
          "internalType": "uint256",
          "name": "productId",
          "type": "uint256"
        },
        {
          "internalType": "string",
          "name": "productName",
          "type": "string"
        },
        {
          "internalType": "string",
          "name": "licensor",
          "type": "string"
        },
        {
          "internalType": "string",
          "name": "licensee",
          "type": "string"
        },
        {
          "internalType": "address payable",
          "name": "ownerAddress",
          "type": "address"
        },
        {
          "internalType": "uint256",
          "name": "licenseFee",
          "type": "uint256"
        },
        {
          "internalType": "uint256",
          "name": "term1StartDate",
          "type": "uint256"
        },
        {
          "internalType": "uint256",
          "name": "term1EndDate",
          "type": "uint256"
        },
        {
          "internalType": "string",
          "name": "term2",
          "type": "string"
        }
      ],
      "payable": false,
      "stateMutability": "view",
      "type": "function"
    },
    {
      "constant": true,
      "inputs": [],
      "name": "productCount",
      "outputs": [
        {
          "internalType": "uint256",
          "name": "",
          "type": "uint256"
        }
      ],
      "payable": false,
      "stateMutability": "view",
      "type": "function"
    },
    {
      "constant": true,
      "inputs": [
        {
          "internalType": "uint256",
          "name": "",
          "type": "uint256"
        }
      ],
      "name": "products",
      "outputs": [
        {
          "internalType": "uint256",
          "name": "productId",
          "type": "uint256"
        },
        {
          "internalType": "string",
          "name": "productName",
          "type": "string"
        },
        {
          "internalType": "string",
          "name": "productType",
          "type": "string"
        },
        {
          "internalType": "string",
          "name": "orginator",
          "type": "string"
        },
        {
          "internalType": "string",
          "name": "ownerEmail",
          "type": "string"
        },
        {
          "internalType": "uint256",
          "name": "timestamp",
          "type": "uint256"
        },
        {
          "internalType": "uint256",
          "name": "price",
          "type": "uint256"
        },
        {
          "internalType": "address payable",
          "name": "owner",
          "type": "address"
        },
        {
          "internalType": "bool",
          "name": "inStore",
          "type": "bool"
        },
        {
          "internalType": "bool",
          "name": "license",
          "type": "bool"
        }
      ],
      "payable": false,
      "stateMutability": "view",
      "type": "function"
    },
    {
      "constant": false,
      "inputs": [
        {
          "internalType": "string",
          "name": "_productName",
          "type": "string"
        },
        {
          "internalType": "string",
          "name": "_productType",
          "type": "string"
        },
        {
          "internalType": "string",
          "name": "_email",
          "type": "string"
        },
        {
          "internalType": "uint256",
          "name": "_price",
          "type": "uint256"
        },
        {
          "internalType": "bool",
          "name": "_inStore",
          "type": "bool"
        },
        {
          "internalType": "bool",
          "name": "_license",
          "type": "bool"
        }
      ],
      "name": "createProduct",
      "outputs": [],
      "payable": false,
      "stateMutability": "nonpayable",
      "type": "function"
    },
    {
      "constant": false,
      "inputs": [
        {
          "internalType": "uint256",
          "name": "_productId",
          "type": "uint256"
        },
        {
          "internalType": "string",
          "name": "_buyerEmail",
          "type": "string"
        }
      ],
      "name": "purchaseProduct",
      "outputs": [],
      "payable": true,
      "stateMutability": "payable",
      "type": "function"
    },
    {
      "constant": false,
      "inputs": [
        {
          "internalType": "uint256",
          "name": "_productId",
          "type": "uint256"
        },
        {
          "internalType": "string",
          "name": "_licensee",
          "type": "string"
        }
      ],
      "name": "purchaseLicense",
      "outputs": [],
      "payable": true,
      "stateMutability": "payable",
      "type": "function"
    },
    {
      "constant": false,
      "inputs": [
        {
          "internalType": "uint256",
          "name": "_productId",
          "type": "uint256"
        },
        {
          "internalType": "uint256",
          "name": "_price",
          "type": "uint256"
        },
        {
          "internalType": "bool",
          "name": "_inStore",
          "type": "bool"
        },
        {
          "internalType": "bool",
          "name": "_license",
          "type": "bool"
        }
      ],
      "name": "editProduct",
      "outputs": [],
      "payable": false,
      "stateMutability": "nonpayable",
      "type": "function"
    },
    {
      "constant": false,
      "inputs": [
        {
          "internalType": "uint256",
          "name": "_productId",
          "type": "uint256"
        },
        {
          "internalType": "string",
          "name": "_productName",
          "type": "string"
        },
        {
          "internalType": "string",
          "name": "_licensor",
          "type": "string"
        },
        {
          "internalType": "uint256",
          "name": "_licenseFee",
          "type": "uint256"
        },
        {
          "internalType": "uint256",
          "name": "_term1StartDate",
          "type": "uint256"
        },
        {
          "internalType": "uint256",
          "name": "_term1EndDate",
          "type": "uint256"
        },
        {
          "internalType": "string",
          "name": "_term2",
          "type": "string"
        }
      ],
      "name": "addLicense",
      "outputs": [],
      "payable": false,
      "stateMutability": "nonpayable",
      "type": "function"
    }
  ],
  "bytecode": "0x608060405234801561001057600080fd5b50613388806100206000396000f3fe6080604052600436106100865760003560e01c8063afa3108311610059578063afa310831461080b578063c031d7f714610a23578063c8cd6b1414610ae8578063d98dce4714610b45578063e0f6ef8714610b7057610086565b806308d1b58e1461008b57806352cbc6dc146102d25780637acc0b20146104f05780638af3424614610746575b600080fd5b34801561009757600080fd5b506100c4600480360360208110156100ae57600080fd5b8101908080359060200190929190505050610b9b565b604051808a81526020018060200180602001806020018973ffffffffffffffffffffffffffffffffffffffff1673ffffffffffffffffffffffffffffffffffffffff1681526020018881526020018781526020018681526020018060200185810385528d818151815260200191508051906020019080838360005b8381101561015a57808201518184015260208101905061013f565b50505050905090810190601f1680156101875780820380516001836020036101000a031916815260200191505b5085810384528c818151815260200191508051906020019080838360005b838110156101c05780820151818401526020810190506101a5565b50505050905090810190601f1680156101ed5780820380516001836020036101000a031916815260200191505b5085810383528b818151815260200191508051906020019080838360005b8381101561022657808201518184015260208101905061020b565b50505050905090810190601f1680156102535780820380516001836020036101000a031916815260200191505b50858103825286818151815260200191508051906020019080838360005b8381101561028c578082015181840152602081019050610271565b50505050905090810190601f1680156102b95780820380516001836020036101000a031916815260200191505b509d505050505050505050505050505060405180910390f35b3480156102de57600080fd5b506104ee600480360360e08110156102f557600080fd5b81019080803590602001909291908035906020019064010000000081111561031c57600080fd5b82018360208201111561032e57600080fd5b8035906020019184600183028401116401000000008311171561035057600080fd5b91908080601f016020809104026020016040519081016040528093929190818152602001838380828437600081840152601f19601f820116905080830192505050505050509192919290803590602001906401000000008111156103b357600080fd5b8201836020820111156103c557600080fd5b803590602001918460018302840111640100000000831117156103e757600080fd5b91908080601f016020809104026020016040519081016040528093929190818152602001838380828437600081840152601f19601f8201169050808301925050505050505091929192908035906020019092919080359060200190929190803590602001909291908035906020019064010000000081111561046857600080fd5b82018360208201111561047a57600080fd5b8035906020019184600183028401116401000000008311171561049c57600080fd5b91908080601f016020809104026020016040519081016040528093929190818152602001838380828437600081840152601f19601f820116905080830192505050505050509192919290505050610e69565b005b3480156104fc57600080fd5b506105296004803603602081101561051357600080fd5b810190808035906020019092919050505061120c565b604051808b8152602001806020018060200180602001806020018a81526020018981526020018873ffffffffffffffffffffffffffffffffffffffff1673ffffffffffffffffffffffffffffffffffffffff168152602001871515151581526020018615151515815260200185810385528e818151815260200191508051906020019080838360005b838110156105cd5780820151818401526020810190506105b2565b50505050905090810190601f1680156105fa5780820380516001836020036101000a031916815260200191505b5085810384528d818151815260200191508051906020019080838360005b83811015610633578082015181840152602081019050610618565b50505050905090810190601f1680156106605780820380516001836020036101000a031916815260200191505b5085810383528c818151815260200191508051906020019080838360005b8381101561069957808201518184015260208101905061067e565b50505050905090810190601f1680156106c65780820380516001836020036101000a031916815260200191505b5085810382528b818151815260200191508051906020019080838360005b838110156106ff5780820151818401526020810190506106e4565b50505050905090810190601f16801561072c5780820380516001836020036101000a031916815260200191505b509e50505050505050505050505050505060405180910390f35b6108096004803603604081101561075c57600080fd5b81019080803590602001909291908035906020019064010000000081111561078357600080fd5b82018360208201111561079557600080fd5b803590602001918460018302840111640100000000831117156107b757600080fd5b91908080601f016020809104026020016040519081016040528093929190818152602001838380828437600081840152601f19601f8201169050808301925050505050505091929192905050506114fa565b005b34801561081757600080fd5b50610a21600480360360c081101561082e57600080fd5b810190808035906020019064010000000081111561084b57600080fd5b82018360208201111561085d57600080fd5b8035906020019184600183028401116401000000008311171561087f57600080fd5b91908080601f016020809104026020016040519081016040528093929190818152602001838380828437600081840152601f19601f820116905080830192505050505050509192919290803590602001906401000000008111156108e257600080fd5b8201836020820111156108f457600080fd5b8035906020019184600183028401116401000000008311171561091657600080fd5b91908080601f016020809104026020016040519081016040528093929190818152602001838380828437600081840152601f19601f8201169050808301925050505050505091929192908035906020019064010000000081111561097957600080fd5b82018360208201111561098b57600080fd5b803590602001918460018302840111640100000000831117156109ad57600080fd5b91908080601f016020809104026020016040519081016040528093929190818152602001838380828437600081840152601f19601f82011690508083019250505050505050919291929080359060200190929190803515159060200190929190803515159060200190929190505050611c4a565b005b610ae660048036036040811015610a3957600080fd5b810190808035906020019092919080359060200190640100000000811115610a6057600080fd5b820183602082011115610a7257600080fd5b80359060200191846001830284011164010000000083111715610a9457600080fd5b91908080601f016020809104026020016040519081016040528093929190818152602001838380828437600081840152601f19601f820116905080830192505050505050509192919290505050612040565b005b348015610af457600080fd5b50610b4360048036036080811015610b0b57600080fd5b810190808035906020019092919080359060200190929190803515159060200190929190803515159060200190929190505050612c49565b005b348015610b5157600080fd5b50610b5a613142565b6040518082815260200191505060405180910390f35b348015610b7c57600080fd5b50610b85613148565b6040518082815260200191505060405180910390f35b6003602052806000526040600020600091509050806000015490806001018054600181600116156101000203166002900480601f016020809104026020016040519081016040528092919081815260200182805460018160011615610100020316600290048015610c4d5780601f10610c2257610100808354040283529160200191610c4d565b820191906000526020600020905b815481529060010190602001808311610c3057829003601f168201915b505050505090806002018054600181600116156101000203166002900480601f016020809104026020016040519081016040528092919081815260200182805460018160011615610100020316600290048015610ceb5780601f10610cc057610100808354040283529160200191610ceb565b820191906000526020600020905b815481529060010190602001808311610cce57829003601f168201915b505050505090806003018054600181600116156101000203166002900480601f016020809104026020016040519081016040528092919081815260200182805460018160011615610100020316600290048015610d895780601f10610d5e57610100808354040283529160200191610d89565b820191906000526020600020905b815481529060010190602001808311610d6c57829003601f168201915b5050505050908060040160009054906101000a900473ffffffffffffffffffffffffffffffffffffffff1690806005015490806006015490806007015490806008018054600181600116156101000203166002900480601f016020809104026020016040519081016040528092919081815260200182805460018160011615610100020316600290048015610e5f5780601f10610e3457610100808354040283529160200191610e5f565b820191906000526020600020905b815481529060010190602001808311610e4257829003601f168201915b5050505050905089565b6001600081548092919060010191905055506040518061012001604052808881526020018781526020018681526020016040518060400160405280600381526020017f4e2f41000000000000000000000000000000000000000000000000000000000081525081526020013373ffffffffffffffffffffffffffffffffffffffff1681526020018581526020018481526020018381526020018281525060036000898152602001908152602001600020600082015181600001556020820151816001019080519060200190610f3f92919061314e565b506040820151816002019080519060200190610f5c92919061314e565b506060820151816003019080519060200190610f7992919061314e565b5060808201518160040160006101000a81548173ffffffffffffffffffffffffffffffffffffffff021916908373ffffffffffffffffffffffffffffffffffffffff16021790555060a0820151816005015560c0820151816006015560e08201518160070155610100820151816008019080519060200190610ffc92919061314e565b509050507f72afe95e05f0975eb8f32a62416be384f27ac6850cc7cb11521838096017c80f8787873388888888604051808981526020018060200180602001806020018973ffffffffffffffffffffffffffffffffffffffff1673ffffffffffffffffffffffffffffffffffffffff1681526020018881526020018781526020018681526020018060200185810385528c818151815260200191508051906020019080838360005b838110156110bf5780820151818401526020810190506110a4565b50505050905090810190601f1680156110ec5780820380516001836020036101000a031916815260200191505b5085810384528b818151815260200191508051906020019080838360005b8381101561112557808201518184015260208101905061110a565b50505050905090810190601f1680156111525780820380516001836020036101000a031916815260200191505b50858103835260038152602001807f4e2f410000000000000000000000000000000000000000000000000000000000815250602001858103825286818151815260200191508051906020019080838360005b838110156111bf5780820151818401526020810190506111a4565b50505050905090810190601f1680156111ec5780820380516001836020036101000a031916815260200191505b509c5050505050505050505050505060405180910390a150505050505050565b6002602052806000526040600020600091509050806000015490806001018054600181600116156101000203166002900480601f0160208091040260200160405190810160405280929190818152602001828054600181600116156101000203166002900480156112be5780601f10611293576101008083540402835291602001916112be565b820191906000526020600020905b8154815290600101906020018083116112a157829003601f168201915b505050505090806002018054600181600116156101000203166002900480601f01602080910402602001604051908101604052809291908181526020018280546001816001161561010002031660029004801561135c5780601f106113315761010080835404028352916020019161135c565b820191906000526020600020905b81548152906001019060200180831161133f57829003601f168201915b505050505090806003018054600181600116156101000203166002900480601f0160208091040260200160405190810160405280929190818152602001828054600181600116156101000203166002900480156113fa5780601f106113cf576101008083540402835291602001916113fa565b820191906000526020600020905b8154815290600101906020018083116113dd57829003601f168201915b505050505090806004018054600181600116156101000203166002900480601f0160208091040260200160405190810160405280929190818152602001828054600181600116156101000203166002900480156114985780601f1061146d57610100808354040283529160200191611498565b820191906000526020600020905b81548152906001019060200180831161147b57829003601f168201915b5050505050908060050154908060060154908060070160009054906101000a900473ffffffffffffffffffffffffffffffffffffffff16908060070160149054906101000a900460ff16908060070160159054906101000a900460ff1690508a565b6115026131ce565b600260008481526020019081526020016000206040518061014001604052908160008201548152602001600182018054600181600116156101000203166002900480601f0160208091040260200160405190810160405280929190818152602001828054600181600116156101000203166002900480156115c45780601f10611599576101008083540402835291602001916115c4565b820191906000526020600020905b8154815290600101906020018083116115a757829003601f168201915b50505050508152602001600282018054600181600116156101000203166002900480601f0160208091040260200160405190810160405280929190818152602001828054600181600116156101000203166002900480156116665780601f1061163b57610100808354040283529160200191611666565b820191906000526020600020905b81548152906001019060200180831161164957829003601f168201915b50505050508152602001600382018054600181600116156101000203166002900480601f0160208091040260200160405190810160405280929190818152602001828054600181600116156101000203166002900480156117085780601f106116dd57610100808354040283529160200191611708565b820191906000526020600020905b8154815290600101906020018083116116eb57829003601f168201915b50505050508152602001600482018054600181600116156101000203166002900480601f0160208091040260200160405190810160405280929190818152602001828054600181600116156101000203166002900480156117aa5780601f1061177f576101008083540402835291602001916117aa565b820191906000526020600020905b81548152906001019060200180831161178d57829003601f168201915b5050505050815260200160058201548152602001600682015481526020016007820160009054906101000a900473ffffffffffffffffffffffffffffffffffffffff1673ffffffffffffffffffffffffffffffffffffffff1673ffffffffffffffffffffffffffffffffffffffff1681526020016007820160149054906101000a900460ff161515151581526020016007820160159054906101000a900460ff16151515158152505090506000816000015111801561186f5750600054816000015111155b6118e1576040517f08c379a00000000000000000000000000000000000000000000000000000000081526004018080602001828103825260128152602001807f496e76616c69642050726f64756374204944000000000000000000000000000081525060200191505060405180910390fd5b80610100015161193c576040517f08c379a00000000000000000000000000000000000000000000000000000000081526004018080602001828103825260268152602001806133096026913960400191505060405180910390fd5b8060c001513410156119b6576040517f08c379a000000000000000000000000000000000000000000000000000000000815260040180806020018281038252601e8152602001807f436865636b20746865207072696365206f66207468652070726f64756374000081525060200191505060405180910390fd5b60008160e0015190508073ffffffffffffffffffffffffffffffffffffffff166108fc349081150290604051600060405180830381858888f19350505050158015611a05573d6000803e3d6000fd5b50338260e0019073ffffffffffffffffffffffffffffffffffffffff16908173ffffffffffffffffffffffffffffffffffffffff16815250508282608001819052506000826101000190151590811515815250508160026000868152602001908152602001600020600082015181600001556020820151816001019080519060200190611a9392919061314e565b506040820151816002019080519060200190611ab092919061314e565b506060820151816003019080519060200190611acd92919061314e565b506080820151816004019080519060200190611aea92919061314e565b5060a0820151816005015560c0820151816006015560e08201518160070160006101000a81548173ffffffffffffffffffffffffffffffffffffffff021916908373ffffffffffffffffffffffffffffffffffffffff1602179055506101008201518160070160146101000a81548160ff0219169083151502179055506101208201518160070160156101000a81548160ff0219169083151502179055509050507fa3cc408cb4b64cf73c259aca7aa64d6532dbdf5a5b13fa81de78573d717556fe8484426000604051808581526020018060200184815260200183151515158152602001828103825285818151815260200191508051906020019080838360005b83811015611c07578082015181840152602081019050611bec565b50505050905090810190601f168015611c345780820380516001836020036101000a031916815260200191505b509550505050505060405180910390a150505050565b600080815480929190600101919050555060405180610140016040528060005481526020018781526020018681526020018581526020018581526020014281526020018481526020013373ffffffffffffffffffffffffffffffffffffffff16815260200183151581526020018215158152506002600080548152602001908152602001600020600082015181600001556020820151816001019080519060200190611cf792919061314e565b506040820151816002019080519060200190611d1492919061314e565b506060820151816003019080519060200190611d3192919061314e565b506080820151816004019080519060200190611d4e92919061314e565b5060a0820151816005015560c0820151816006015560e08201518160070160006101000a81548173ffffffffffffffffffffffffffffffffffffffff021916908373ffffffffffffffffffffffffffffffffffffffff1602179055506101008201518160070160146101000a81548160ff0219169083151502179055506101208201518160070160156101000a81548160ff0219169083151502179055509050507fcf54b2a365a185e1e0242f6e003ee63004bbfe6d8e9c4c0869b8a6870dd8a297600054878787884289338a8a604051808b8152602001806020018060200180602001806020018a81526020018981526020018873ffffffffffffffffffffffffffffffffffffffff1673ffffffffffffffffffffffffffffffffffffffff168152602001871515151581526020018615151515815260200185810385528e818151815260200191508051906020019080838360005b83811015611ec0578082015181840152602081019050611ea5565b50505050905090810190601f168015611eed5780820380516001836020036101000a031916815260200191505b5085810384528d818151815260200191508051906020019080838360005b83811015611f26578082015181840152602081019050611f0b565b50505050905090810190601f168015611f535780820380516001836020036101000a031916815260200191505b5085810383528c818151815260200191508051906020019080838360005b83811015611f8c578082015181840152602081019050611f71565b50505050905090810190601f168015611fb95780820380516001836020036101000a031916815260200191505b5085810382528b818151815260200191508051906020019080838360005b83811015611ff2578082015181840152602081019050611fd7565b50505050905090810190601f16801561201f5780820380516001836020036101000a031916815260200191505b509e50505050505050505050505050505060405180910390a1505050505050565b61204861323b565b600360008481526020019081526020016000206040518061012001604052908160008201548152602001600182018054600181600116156101000203166002900480601f01602080910402602001604051908101604052809291908181526020018280546001816001161561010002031660029004801561210a5780601f106120df5761010080835404028352916020019161210a565b820191906000526020600020905b8154815290600101906020018083116120ed57829003601f168201915b50505050508152602001600282018054600181600116156101000203166002900480601f0160208091040260200160405190810160405280929190818152602001828054600181600116156101000203166002900480156121ac5780601f10612181576101008083540402835291602001916121ac565b820191906000526020600020905b81548152906001019060200180831161218f57829003601f168201915b50505050508152602001600382018054600181600116156101000203166002900480601f01602080910402602001604051908101604052809291908181526020018280546001816001161561010002031660029004801561224e5780601f106122235761010080835404028352916020019161224e565b820191906000526020600020905b81548152906001019060200180831161223157829003601f168201915b505050505081526020016004820160009054906101000a900473ffffffffffffffffffffffffffffffffffffffff1673ffffffffffffffffffffffffffffffffffffffff1673ffffffffffffffffffffffffffffffffffffffff168152602001600582015481526020016006820154815260200160078201548152602001600882018054600181600116156101000203166002900480601f0160208091040260200160405190810160405280929190818152602001828054600181600116156101000203166002900480156123645780601f1061233957610100808354040283529160200191612364565b820191906000526020600020905b81548152906001019060200180831161234757829003601f168201915b50505050508152505090506123776131ce565b600260008581526020019081526020016000206040518061014001604052908160008201548152602001600182018054600181600116156101000203166002900480601f0160208091040260200160405190810160405280929190818152602001828054600181600116156101000203166002900480156124395780601f1061240e57610100808354040283529160200191612439565b820191906000526020600020905b81548152906001019060200180831161241c57829003601f168201915b50505050508152602001600282018054600181600116156101000203166002900480601f0160208091040260200160405190810160405280929190818152602001828054600181600116156101000203166002900480156124db5780601f106124b0576101008083540402835291602001916124db565b820191906000526020600020905b8154815290600101906020018083116124be57829003601f168201915b50505050508152602001600382018054600181600116156101000203166002900480601f01602080910402602001604051908101604052809291908181526020018280546001816001161561010002031660029004801561257d5780601f106125525761010080835404028352916020019161257d565b820191906000526020600020905b81548152906001019060200180831161256057829003601f168201915b50505050508152602001600482018054600181600116156101000203166002900480601f01602080910402602001604051908101604052809291908181526020018280546001816001161561010002031660029004801561261f5780601f106125f45761010080835404028352916020019161261f565b820191906000526020600020905b81548152906001019060200180831161260257829003601f168201915b5050505050815260200160058201548152602001600682015481526020016007820160009054906101000a900473ffffffffffffffffffffffffffffffffffffffff1673ffffffffffffffffffffffffffffffffffffffff1673ffffffffffffffffffffffffffffffffffffffff1681526020016007820160149054906101000a900460ff161515151581526020016007820160159054906101000a900460ff16151515158152505090508160a00151341015612727576040517f08c379a00000000000000000000000000000000000000000000000000000000081526004018080602001828103825260258152602001806132e46025913960400191505060405180910390fd5b806101200151612782576040517f08c379a00000000000000000000000000000000000000000000000000000000081526004018080602001828103825260218152602001806132c36021913960400191505060405180910390fd5b428260e0015111156127fc576040517f08c379a00000000000000000000000000000000000000000000000000000000081526004018080602001828103825260148152602001807f4c6963656e7365205465726d204578706972656400000000000000000000000081525060200191505060405180910390fd5b6000826080015190508073ffffffffffffffffffffffffffffffffffffffff166108fc349081150290604051600060405180830381858888f1935050505015801561284b573d6000803e3d6000fd5b5083836060018190525033836080019073ffffffffffffffffffffffffffffffffffffffff16908173ffffffffffffffffffffffffffffffffffffffff168152505060008360c001818152505060008360e00181815250506040518060400160405280600381526020017f4e2f410000000000000000000000000000000000000000000000000000000000815250836101000181905250600082610120019015159081151581525050816002600087815260200190815260200160002060008201518160000155602082015181600101908051906020019061292e92919061314e565b50604082015181600201908051906020019061294b92919061314e565b50606082015181600301908051906020019061296892919061314e565b50608082015181600401908051906020019061298592919061314e565b5060a0820151816005015560c0820151816006015560e08201518160070160006101000a81548173ffffffffffffffffffffffffffffffffffffffff021916908373ffffffffffffffffffffffffffffffffffffffff1602179055506101008201518160070160146101000a81548160ff0219169083151502179055506101208201518160070160156101000a81548160ff0219169083151502179055509050508260036000878152602001908152602001600020600082015181600001556020820151816001019080519060200190612a6092919061314e565b506040820151816002019080519060200190612a7d92919061314e565b506060820151816003019080519060200190612a9a92919061314e565b5060808201518160040160006101000a81548173ffffffffffffffffffffffffffffffffffffffff021916908373ffffffffffffffffffffffffffffffffffffffff16021790555060a0820151816005015560c0820151816006015560e08201518160070155610100820151816008019080519060200190612b1d92919061314e565b509050507fa0705ce23d32ebf6d22347699f96c94efada63dcb756942e30c533ed91348673858460400151856060015142604051808581526020018060200180602001848152602001838103835286818151815260200191508051906020019080838360005b83811015612b9e578082015181840152602081019050612b83565b50505050905090810190601f168015612bcb5780820380516001836020036101000a031916815260200191505b50838103825285818151815260200191508051906020019080838360005b83811015612c04578082015181840152602081019050612be9565b50505050905090810190601f168015612c315780820380516001836020036101000a031916815260200191505b50965050505050505060405180910390a15050505050565b612c516131ce565b600260008681526020019081526020016000206040518061014001604052908160008201548152602001600182018054600181600116156101000203166002900480601f016020809104026020016040519081016040528092919081815260200182805460018160011615610100020316600290048015612d135780601f10612ce857610100808354040283529160200191612d13565b820191906000526020600020905b815481529060010190602001808311612cf657829003601f168201915b50505050508152602001600282018054600181600116156101000203166002900480601f016020809104026020016040519081016040528092919081815260200182805460018160011615610100020316600290048015612db55780601f10612d8a57610100808354040283529160200191612db5565b820191906000526020600020905b815481529060010190602001808311612d9857829003601f168201915b50505050508152602001600382018054600181600116156101000203166002900480601f016020809104026020016040519081016040528092919081815260200182805460018160011615610100020316600290048015612e575780601f10612e2c57610100808354040283529160200191612e57565b820191906000526020600020905b815481529060010190602001808311612e3a57829003601f168201915b50505050508152602001600482018054600181600116156101000203166002900480601f016020809104026020016040519081016040528092919081815260200182805460018160011615610100020316600290048015612ef95780601f10612ece57610100808354040283529160200191612ef9565b820191906000526020600020905b815481529060010190602001808311612edc57829003601f168201915b5050505050815260200160058201548152602001600682015481526020016007820160009054906101000a900473ffffffffffffffffffffffffffffffffffffffff1673ffffffffffffffffffffffffffffffffffffffff1673ffffffffffffffffffffffffffffffffffffffff1681526020016007820160149054906101000a900460ff161515151581526020016007820160159054906101000a900460ff16151515158152505090503373ffffffffffffffffffffffffffffffffffffffff168160e0015173ffffffffffffffffffffffffffffffffffffffff161461302c576040517f08c379a000000000000000000000000000000000000000000000000000000000815260040180806020018281038252602581526020018061332f6025913960400191505060405180910390fd5b600081600001511180156130465750600054816000015111155b6130b8576040517f08c379a00000000000000000000000000000000000000000000000000000000081526004018080602001828103825260118152602001807f50726f64756374204e6f7420466f756e6400000000000000000000000000000081525060200191505060405180910390fd5b838160c0018181525050828161010001901515908115158152505081816101200190151590811515815250507fd9b21cb2e70669dabd1fd7b4ec3bbde63efa7b8a82aaa24e478455b41348fcd28585858560405180858152602001848152602001831515151581526020018215151515815260200194505050505060405180910390a15050505050565b60015481565b60005481565b828054600181600116156101000203166002900490600052602060002090601f016020900481019282601f1061318f57805160ff19168380011785556131bd565b828001600101855582156131bd579182015b828111156131bc5782518255916020019190600101906131a1565b5b5090506131ca919061329d565b5090565b60405180610140016040528060008152602001606081526020016060815260200160608152602001606081526020016000815260200160008152602001600073ffffffffffffffffffffffffffffffffffffffff1681526020016000151581526020016000151581525090565b60405180610120016040528060008152602001606081526020016060815260200160608152602001600073ffffffffffffffffffffffffffffffffffffffff168152602001600081526020016000815260200160008152602001606081525090565b6132bf91905b808211156132bb5760008160009055506001016132a3565b5090565b9056fe50726f64756374206e6f7420617661696c61626c6520666f72206c6963656e7365436865636b2077697468206c6963656e736520666565206f66207468652070726f64756374546869732050726f64756374206973206e6f7420617661696c61626c6520666f722073616c65596f752063616e277420686176652061636365737320746f20746869732070726f64756374a265627a7a72315820b917d41f2b2bc3b54606dabf49b65e54541b4f09889e778ae87d9df4ab315cbd64736f6c63430005100032",
  "source": "pragma solidity >=0.5.0;\n\ncontract heroledger {\n    uint256 public productCount;\n    uint256 public licenseProductCount;\n\n    mapping(uint256 => product) public products;\n    mapping(uint256 => licensedProduct) public licensedProducts;\n\n    struct licensedProduct {\n        uint256 productId;\n        string productName;\n        string licensor;\n        string licensee;\n        address payable ownerAddress;\n        uint256 licenseFee;\n        uint256 term1StartDate;\n        uint256 term1EndDate;\n        string term2;\n    }\n\n    struct product {\n        uint256 productId;\n        string productName;\n        string productType;\n        string orginator;\n        string ownerEmail;\n        uint256 timestamp;\n        uint256 price;\n        address payable owner;\n        bool inStore;\n        bool license;\n    }\n\n    event licenseCreated(\n        uint256 productId,\n        string productName,\n        string licensor,\n        string licensee,\n        address payable ownerAddress,\n        uint256 licenseFee,\n        uint256 term1StartDate,\n        uint256 term1EndDate,\n        string term2\n    );\n\n\n    event productCreated(\n        uint256 productId,\n        string productName,\n        string productType,\n        string originator,\n        string ownerEmail,\n        uint256 timestamp,\n        uint256 price,\n        address payable owner,\n        bool inStore,\n        bool license\n    );\n\n    event productPurchased(\n        uint256 productId,\n        string ownerEmail,\n        uint256 timestamp,\n        bool inStore\n    );\n\n    event licensePurchased(\n        uint256 productId,\n        string licensorMail,\n        string licenseeMail,\n        uint256 timestamp\n    );\n    event productEdited(\n        uint256 productId,\n        uint256 price,\n        bool inStore,\n        bool license\n    );\n\n    function createProduct(\n        string memory _productName,\n        string memory _productType,\n        string memory _email,\n        uint256 _price,\n        bool _inStore,\n        bool _license\n    ) public {\n        productCount++;\n        products[productCount] = product(\n            productCount,\n            _productName,\n            _productType,\n            _email,\n            _email,\n            block.timestamp,\n            _price,\n            msg.sender,\n            _inStore,\n            _license\n        );\n\n        emit productCreated(\n            productCount,\n            _productName,\n            _productType,\n            _email,\n            _email,\n            block.timestamp,\n            _price,\n            msg.sender,\n            _inStore,\n            _license\n        );\n    }\n\n    function purchaseProduct(\n        uint256 _productId,\n        string memory _buyerEmail\n    ) public payable {\n        product memory _product = products[_productId];\n\n        require(\n            _product.productId > 0 && _product.productId <= productCount,\n            \"Invalid Product ID\"\n        );\n\n        require(\n            _product.inStore,\n            \"This Product is not available for sale\"\n        );\n\n        require(msg.value >= _product.price, \"Check the price of the product\");\n\n        address payable _sellerAdd = _product.owner;\n\n        address(_sellerAdd).transfer(msg.value);\n\n        _product.owner = msg.sender;\n        _product.ownerEmail = _buyerEmail;\n        _product.inStore = false;\n\n        products[_productId] = _product;\n\n        emit productPurchased(_productId, _buyerEmail, block.timestamp, false);\n    }\n\n    function purchaseLicense(uint256 _productId,string memory _licensee) public payable {\n        licensedProduct memory _licenseProduct = licensedProducts[_productId];\n\n        product memory _product = products[_productId];\n\n        require(msg.value >= _licenseProduct.licenseFee, \"Check with license fee of the product\");\n        require(_product.license,\"Product not available for license\");\n\n        require(_licenseProduct.term1EndDate <= block.timestamp, \"License Term Expired\");\n\n\n        address payable _licensorAdd = _licenseProduct.ownerAddress;\n\n        address(_licensorAdd).transfer(msg.value);\n\n        _licenseProduct.licensee = _licensee;\n        _licenseProduct.ownerAddress = msg.sender;\n        _licenseProduct.term1StartDate = 0;\n        _licenseProduct.term1EndDate = 0;\n        _licenseProduct.term2 = \"N/A\";\n\n        _product.license = false;\n\n        products[_productId] = _product;\n\n        licensedProducts[_productId] = _licenseProduct;\n        \n        emit licensePurchased(_productId,_licenseProduct.licensor, _licenseProduct.licensee, block.timestamp);\n    }\n\n    function editProduct(\n        uint256 _productId,\n        uint256 _price,\n        bool _inStore,\n        bool _license\n    ) public {\n        product memory _product = products[_productId];\n\n        require(\n            _product.owner == msg.sender,\n            \"You can't have access to this product\"\n        );\n\n        require(\n            _product.productId > 0 && _product.productId <= productCount,\n            \"Product Not Found\"\n        );\n\n        _product.price = _price;\n        _product.inStore = _inStore;\n        _product.license = _license;\n\n        emit productEdited(_productId, _price, _inStore, _license);\n    }\n\n    function addLicense(\n        uint256 _productId,\n        string memory _productName,\n        string memory _licensor,\n        uint256 _licenseFee,\n        uint256 _term1StartDate,\n        uint256 _term1EndDate,\n        string memory _term2\n    ) public {\n        licenseProductCount++;\n        licensedProducts[_productId] = licensedProduct(\n            _productId,\n            _productName,\n            _licensor,\n            \"N/A\",\n            msg.sender,\n            _licenseFee,\n            _term1StartDate,\n            _term1EndDate,\n            _term2\n        );\n\n        emit licenseCreated(\n            _productId,\n            _productName,\n            _licensor,\n            \"N/A\",\n            msg.sender,\n            _licenseFee,\n            _term1StartDate,\n            _term1EndDate,\n            _term2\n        );\n    }\n}\n",
  "sourcePath": "/media/dinesh/Workstations/Blockchain/Mock GCSE DApp/Heroledger Project/Heroledger/src/blockchain/contracts/heroledger.sol",
  "compiler": {
    "name": "solc",
    "version": "0.5.16+commit.9c3226ce.Emscripten.clang"
  },
  "schemaVersion": "3.2.2",
  "updatedAt": "2020-09-12T16:39:50.008Z",
  "devdoc": {
    "methods": {}
  },
  "userdoc": {
    "methods": {}
  }
}