{
  "contractName": "heroledger",
  "abi": [
    {
      "anonymous": false,
      "inputs": [
        {
          "indexed": false,
          "internalType": "uint256",
          "name": "productId",
          "type": "uint256"
        },
        {
          "indexed": false,
          "internalType": "string",
          "name": "productName",
          "type": "string"
        },
        {
          "indexed": false,
          "internalType": "string",
          "name": "productType",
          "type": "string"
        },
        {
          "indexed": false,
          "internalType": "string",
          "name": "originator",
          "type": "string"
        },
        {
          "indexed": false,
          "internalType": "string",
          "name": "ownerEmail",
          "type": "string"
        },
        {
          "indexed": false,
          "internalType": "uint256",
          "name": "timestamp",
          "type": "uint256"
        },
        {
          "indexed": false,
          "internalType": "uint256",
          "name": "price",
          "type": "uint256"
        },
        {
          "indexed": false,
          "internalType": "address",
          "name": "owner",
          "type": "address"
        },
        {
          "indexed": false,
          "internalType": "bool",
          "name": "inStore",
          "type": "bool"
        },
        {
          "indexed": false,
          "internalType": "bool",
          "name": "license",
          "type": "bool"
        }
      ],
      "name": "productCreated",
      "type": "event"
    },
    {
      "anonymous": false,
      "inputs": [
        {
          "indexed": false,
          "internalType": "uint256",
          "name": "productId",
          "type": "uint256"
        },
        {
          "indexed": false,
          "internalType": "uint256",
          "name": "price",
          "type": "uint256"
        },
        {
          "indexed": false,
          "internalType": "bool",
          "name": "inStore",
          "type": "bool"
        },
        {
          "indexed": false,
          "internalType": "bool",
          "name": "license",
          "type": "bool"
        }
      ],
      "name": "productEdited",
      "type": "event"
    },
    {
      "constant": true,
      "inputs": [],
      "name": "productCount",
      "outputs": [
        {
          "internalType": "uint256",
          "name": "",
          "type": "uint256"
        }
      ],
      "payable": false,
      "stateMutability": "view",
      "type": "function"
    },
    {
      "constant": true,
      "inputs": [
        {
          "internalType": "uint256",
          "name": "",
          "type": "uint256"
        }
      ],
      "name": "products",
      "outputs": [
        {
          "internalType": "uint256",
          "name": "productId",
          "type": "uint256"
        },
        {
          "internalType": "string",
          "name": "productName",
          "type": "string"
        },
        {
          "internalType": "string",
          "name": "productType",
          "type": "string"
        },
        {
          "internalType": "string",
          "name": "orginator",
          "type": "string"
        },
        {
          "internalType": "string",
          "name": "ownerEmail",
          "type": "string"
        },
        {
          "internalType": "uint256",
          "name": "timestamp",
          "type": "uint256"
        },
        {
          "internalType": "uint256",
          "name": "price",
          "type": "uint256"
        },
        {
          "internalType": "address payable",
          "name": "owner",
          "type": "address"
        },
        {
          "internalType": "bool",
          "name": "inStore",
          "type": "bool"
        },
        {
          "internalType": "bool",
          "name": "license",
          "type": "bool"
        }
      ],
      "payable": false,
      "stateMutability": "view",
      "type": "function"
    },
    {
      "constant": false,
      "inputs": [
        {
          "internalType": "string",
          "name": "_productName",
          "type": "string"
        },
        {
          "internalType": "string",
          "name": "_productType",
          "type": "string"
        },
        {
          "internalType": "string",
          "name": "_email",
          "type": "string"
        },
        {
          "internalType": "uint256",
          "name": "_price",
          "type": "uint256"
        },
        {
          "internalType": "bool",
          "name": "_inStore",
          "type": "bool"
        },
        {
          "internalType": "bool",
          "name": "_license",
          "type": "bool"
        }
      ],
      "name": "createProduct",
      "outputs": [],
      "payable": false,
      "stateMutability": "nonpayable",
      "type": "function"
    },
    {
      "constant": false,
      "inputs": [
        {
          "internalType": "uint256",
          "name": "_productId",
          "type": "uint256"
        },
        {
          "internalType": "uint256",
          "name": "_price",
          "type": "uint256"
        },
        {
          "internalType": "bool",
          "name": "_inStore",
          "type": "bool"
        },
        {
          "internalType": "bool",
          "name": "_license",
          "type": "bool"
        }
      ],
      "name": "editProduct",
      "outputs": [],
      "payable": false,
      "stateMutability": "nonpayable",
      "type": "function"
    }
  ],
  "bytecode": "0x608060405234801561001057600080fd5b506111b5806100206000396000f3fe608060405234801561001057600080fd5b506004361061004c5760003560e01c80637acc0b2014610051578063afa310831461029a578063c8cd6b14146104a5578063e0f6ef87146104f5575b600080fd5b61007d6004803603602081101561006757600080fd5b8101908080359060200190929190505050610513565b604051808b8152602001806020018060200180602001806020018a81526020018981526020018873ffffffffffffffffffffffffffffffffffffffff1673ffffffffffffffffffffffffffffffffffffffff168152602001871515151581526020018615151515815260200185810385528e818151815260200191508051906020019080838360005b83811015610121578082015181840152602081019050610106565b50505050905090810190601f16801561014e5780820380516001836020036101000a031916815260200191505b5085810384528d818151815260200191508051906020019080838360005b8381101561018757808201518184015260208101905061016c565b50505050905090810190601f1680156101b45780820380516001836020036101000a031916815260200191505b5085810383528c818151815260200191508051906020019080838360005b838110156101ed5780820151818401526020810190506101d2565b50505050905090810190601f16801561021a5780820380516001836020036101000a031916815260200191505b5085810382528b818151815260200191508051906020019080838360005b83811015610253578082015181840152602081019050610238565b50505050905090810190601f1680156102805780820380516001836020036101000a031916815260200191505b509e50505050505050505050505050505060405180910390f35b6104a3600480360360c08110156102b057600080fd5b81019080803590602001906401000000008111156102cd57600080fd5b8201836020820111156102df57600080fd5b8035906020019184600183028401116401000000008311171561030157600080fd5b91908080601f016020809104026020016040519081016040528093929190818152602001838380828437600081840152601f19601f8201169050808301925050505050505091929192908035906020019064010000000081111561036457600080fd5b82018360208201111561037657600080fd5b8035906020019184600183028401116401000000008311171561039857600080fd5b91908080601f016020809104026020016040519081016040528093929190818152602001838380828437600081840152601f19601f820116905080830192505050505050509192919290803590602001906401000000008111156103fb57600080fd5b82018360208201111561040d57600080fd5b8035906020019184600183028401116401000000008311171561042f57600080fd5b91908080601f016020809104026020016040519081016040528093929190818152602001838380828437600081840152601f19601f82011690508083019250505050505050919291929080359060200190929190803515159060200190929190803515159060200190929190505050610801565b005b6104f3600480360360808110156104bb57600080fd5b810190808035906020019092919080359060200190929190803515159060200190929190803515159060200190929190505050610bf7565b005b6104fd611068565b6040518082815260200191505060405180910390f35b6001602052806000526040600020600091509050806000015490806001018054600181600116156101000203166002900480601f0160208091040260200160405190810160405280929190818152602001828054600181600116156101000203166002900480156105c55780601f1061059a576101008083540402835291602001916105c5565b820191906000526020600020905b8154815290600101906020018083116105a857829003601f168201915b505050505090806002018054600181600116156101000203166002900480601f0160208091040260200160405190810160405280929190818152602001828054600181600116156101000203166002900480156106635780601f1061063857610100808354040283529160200191610663565b820191906000526020600020905b81548152906001019060200180831161064657829003601f168201915b505050505090806003018054600181600116156101000203166002900480601f0160208091040260200160405190810160405280929190818152602001828054600181600116156101000203166002900480156107015780601f106106d657610100808354040283529160200191610701565b820191906000526020600020905b8154815290600101906020018083116106e457829003601f168201915b505050505090806004018054600181600116156101000203166002900480601f01602080910402602001604051908101604052809291908181526020018280546001816001161561010002031660029004801561079f5780601f106107745761010080835404028352916020019161079f565b820191906000526020600020905b81548152906001019060200180831161078257829003601f168201915b5050505050908060050154908060060154908060070160009054906101000a900473ffffffffffffffffffffffffffffffffffffffff16908060070160149054906101000a900460ff16908060070160159054906101000a900460ff1690508a565b600080815480929190600101919050555060405180610140016040528060005481526020018781526020018681526020018581526020018581526020014281526020018481526020013373ffffffffffffffffffffffffffffffffffffffff168152602001831515815260200182151581525060016000805481526020019081526020016000206000820151816000015560208201518160010190805190602001906108ae92919061106e565b5060408201518160020190805190602001906108cb92919061106e565b5060608201518160030190805190602001906108e892919061106e565b50608082015181600401908051906020019061090592919061106e565b5060a0820151816005015560c0820151816006015560e08201518160070160006101000a81548173ffffffffffffffffffffffffffffffffffffffff021916908373ffffffffffffffffffffffffffffffffffffffff1602179055506101008201518160070160146101000a81548160ff0219169083151502179055506101208201518160070160156101000a81548160ff0219169083151502179055509050507fcf54b2a365a185e1e0242f6e003ee63004bbfe6d8e9c4c0869b8a6870dd8a297600054878787884289338a8a604051808b8152602001806020018060200180602001806020018a81526020018981526020018873ffffffffffffffffffffffffffffffffffffffff1673ffffffffffffffffffffffffffffffffffffffff168152602001871515151581526020018615151515815260200185810385528e818151815260200191508051906020019080838360005b83811015610a77578082015181840152602081019050610a5c565b50505050905090810190601f168015610aa45780820380516001836020036101000a031916815260200191505b5085810384528d818151815260200191508051906020019080838360005b83811015610add578082015181840152602081019050610ac2565b50505050905090810190601f168015610b0a5780820380516001836020036101000a031916815260200191505b5085810383528c818151815260200191508051906020019080838360005b83811015610b43578082015181840152602081019050610b28565b50505050905090810190601f168015610b705780820380516001836020036101000a031916815260200191505b5085810382528b818151815260200191508051906020019080838360005b83811015610ba9578082015181840152602081019050610b8e565b50505050905090810190601f168015610bd65780820380516001836020036101000a031916815260200191505b509e50505050505050505050505050505060405180910390a1505050505050565b610bff6110ee565b600160008681526020019081526020016000206040518061014001604052908160008201548152602001600182018054600181600116156101000203166002900480601f016020809104026020016040519081016040528092919081815260200182805460018160011615610100020316600290048015610cc15780601f10610c9657610100808354040283529160200191610cc1565b820191906000526020600020905b815481529060010190602001808311610ca457829003601f168201915b50505050508152602001600282018054600181600116156101000203166002900480601f016020809104026020016040519081016040528092919081815260200182805460018160011615610100020316600290048015610d635780601f10610d3857610100808354040283529160200191610d63565b820191906000526020600020905b815481529060010190602001808311610d4657829003601f168201915b50505050508152602001600382018054600181600116156101000203166002900480601f016020809104026020016040519081016040528092919081815260200182805460018160011615610100020316600290048015610e055780601f10610dda57610100808354040283529160200191610e05565b820191906000526020600020905b815481529060010190602001808311610de857829003601f168201915b50505050508152602001600482018054600181600116156101000203166002900480601f016020809104026020016040519081016040528092919081815260200182805460018160011615610100020316600290048015610ea75780601f10610e7c57610100808354040283529160200191610ea7565b820191906000526020600020905b815481529060010190602001808311610e8a57829003601f168201915b5050505050815260200160058201548152602001600682015481526020016007820160009054906101000a900473ffffffffffffffffffffffffffffffffffffffff1673ffffffffffffffffffffffffffffffffffffffff1673ffffffffffffffffffffffffffffffffffffffff1681526020016007820160149054906101000a900460ff161515151581526020016007820160159054906101000a900460ff161515151581525050905060008160000151118015610f6c5750600054816000015111155b610fde576040517f08c379a00000000000000000000000000000000000000000000000000000000081526004018080602001828103825260118152602001807f50726f64756374204e6f7420466f756e6400000000000000000000000000000081525060200191505060405180910390fd5b838160c0018181525050828161010001901515908115158152505081816101200190151590811515815250507fd9b21cb2e70669dabd1fd7b4ec3bbde63efa7b8a82aaa24e478455b41348fcd28585858560405180858152602001848152602001831515151581526020018215151515815260200194505050505060405180910390a15050505050565b60005481565b828054600181600116156101000203166002900490600052602060002090601f016020900481019282601f106110af57805160ff19168380011785556110dd565b828001600101855582156110dd579182015b828111156110dc5782518255916020019190600101906110c1565b5b5090506110ea919061115b565b5090565b60405180610140016040528060008152602001606081526020016060815260200160608152602001606081526020016000815260200160008152602001600073ffffffffffffffffffffffffffffffffffffffff1681526020016000151581526020016000151581525090565b61117d91905b80821115611179576000816000905550600101611161565b5090565b9056fea265627a7a7231582026b3a67d6a5b45c1867536e48445b711b4bbee2ffdef607d2ea5fe6d02f0e19364736f6c63430005100032",
  "source": "pragma solidity >=0.5.0;\n\ncontract heroledger {\n    uint256 public productCount;\n\n    mapping(uint256 => product) public products;\n\n    struct product {\n        uint256 productId;\n        string productName;\n        string productType;\n        string orginator;\n        string ownerEmail;\n        uint256 timestamp;\n        uint256 price;\n        address payable owner;\n        bool inStore;\n        bool license;\n    }\n\n    event productCreated(\n        uint256 productId,\n        string productName,\n        string productType,\n        string originator,\n        string ownerEmail,\n        uint256 timestamp,\n        uint256 price,\n        address owner,\n        bool inStore,\n        bool license\n    );\n\n    event productEdited(\n        uint256 productId,\n        uint256 price,\n        bool inStore,\n        bool license\n    );\n\n    function createProduct(\n        string memory _productName,\n        string memory _productType,\n        string memory _email,\n        uint256 _price,\n        bool _inStore,\n        bool _license\n    ) public {\n        productCount++;\n        products[productCount] = product(\n            productCount,\n            _productName,\n            _productType,\n            _email,\n            _email,\n            block.timestamp,\n            _price,\n            msg.sender,\n            _inStore,\n            _license\n        );\n\n        emit productCreated(\n            productCount,\n            _productName,\n            _productType,\n            _email,\n            _email,\n            block.timestamp,\n            _price,\n            msg.sender,\n            _inStore,\n            _license\n        );\n    }\n\n    function editProduct(\n        uint256 _productId,\n        uint256 _price,\n        bool _inStore,\n        bool _license\n    ) public {\n        product memory _product = products[_productId];\n\n        require(_product.productId > 0 && _product.productId <= productCount,\"Product Not Found\");\n\n        _product.price = _price;\n        _product.inStore = _inStore;\n        _product.license = _license;\n\n        emit productEdited(_productId, _price, _inStore, _license);\n    }\n}\n",
  "sourcePath": "/media/dinesh/Workstations/Blockchain/Mock GCSE DApp/Heroledger Project/Heroledger/src/blockchain/contracts/heroledger.sol",
  "compiler": {
    "name": "solc",
    "version": "0.5.16+commit.9c3226ce.Emscripten.clang"
  },
  "schemaVersion": "3.2.2",
  "updatedAt": "2020-09-01T06:11:17.303Z",
  "devdoc": {
    "methods": {}
  },
  "userdoc": {
    "methods": {}
  }
}