{
  "contractName": "heroledger",
  "abi": [
    {
      "anonymous": false,
      "inputs": [
        {
          "indexed": false,
          "internalType": "uint256",
          "name": "productId",
          "type": "uint256"
        },
        {
          "indexed": false,
          "internalType": "string",
          "name": "productName",
          "type": "string"
        },
        {
          "indexed": false,
          "internalType": "string",
          "name": "owner",
          "type": "string"
        },
        {
          "indexed": false,
          "internalType": "address",
          "name": "ownerAddress",
          "type": "address"
        },
        {
          "indexed": false,
          "internalType": "uint256",
          "name": "licenseFee",
          "type": "uint256"
        },
        {
          "indexed": false,
          "internalType": "uint256",
          "name": "term1StartDate",
          "type": "uint256"
        },
        {
          "indexed": false,
          "internalType": "uint256",
          "name": "term1EndDate",
          "type": "uint256"
        },
        {
          "indexed": false,
          "internalType": "string",
          "name": "term2",
          "type": "string"
        }
      ],
      "name": "licenseCreated",
      "type": "event"
    },
    {
      "anonymous": false,
      "inputs": [
        {
          "indexed": false,
          "internalType": "uint256",
          "name": "productId",
          "type": "uint256"
        },
        {
          "indexed": false,
          "internalType": "string",
          "name": "productName",
          "type": "string"
        },
        {
          "indexed": false,
          "internalType": "string",
          "name": "productType",
          "type": "string"
        },
        {
          "indexed": false,
          "internalType": "string",
          "name": "originator",
          "type": "string"
        },
        {
          "indexed": false,
          "internalType": "string",
          "name": "ownerEmail",
          "type": "string"
        },
        {
          "indexed": false,
          "internalType": "uint256",
          "name": "timestamp",
          "type": "uint256"
        },
        {
          "indexed": false,
          "internalType": "uint256",
          "name": "price",
          "type": "uint256"
        },
        {
          "indexed": false,
          "internalType": "address",
          "name": "owner",
          "type": "address"
        },
        {
          "indexed": false,
          "internalType": "bool",
          "name": "inStore",
          "type": "bool"
        },
        {
          "indexed": false,
          "internalType": "bool",
          "name": "license",
          "type": "bool"
        }
      ],
      "name": "productCreated",
      "type": "event"
    },
    {
      "anonymous": false,
      "inputs": [
        {
          "indexed": false,
          "internalType": "uint256",
          "name": "productId",
          "type": "uint256"
        },
        {
          "indexed": false,
          "internalType": "uint256",
          "name": "price",
          "type": "uint256"
        },
        {
          "indexed": false,
          "internalType": "bool",
          "name": "inStore",
          "type": "bool"
        },
        {
          "indexed": false,
          "internalType": "bool",
          "name": "license",
          "type": "bool"
        }
      ],
      "name": "productEdited",
      "type": "event"
    },
    {
      "constant": true,
      "inputs": [],
      "name": "licenseProductCount",
      "outputs": [
        {
          "internalType": "uint256",
          "name": "",
          "type": "uint256"
        }
      ],
      "payable": false,
      "stateMutability": "view",
      "type": "function"
    },
    {
      "constant": true,
      "inputs": [
        {
          "internalType": "uint256",
          "name": "",
          "type": "uint256"
        }
      ],
      "name": "licensedProducts",
      "outputs": [
        {
          "internalType": "uint256",
          "name": "productId",
          "type": "uint256"
        },
        {
          "internalType": "string",
          "name": "productName",
          "type": "string"
        },
        {
          "internalType": "string",
          "name": "owner",
          "type": "string"
        },
        {
          "internalType": "address",
          "name": "ownerAddress",
          "type": "address"
        },
        {
          "internalType": "uint256",
          "name": "licenseFee",
          "type": "uint256"
        },
        {
          "internalType": "uint256",
          "name": "term1StartDate",
          "type": "uint256"
        },
        {
          "internalType": "uint256",
          "name": "term1EndDate",
          "type": "uint256"
        },
        {
          "internalType": "string",
          "name": "term2",
          "type": "string"
        }
      ],
      "payable": false,
      "stateMutability": "view",
      "type": "function"
    },
    {
      "constant": true,
      "inputs": [],
      "name": "productCount",
      "outputs": [
        {
          "internalType": "uint256",
          "name": "",
          "type": "uint256"
        }
      ],
      "payable": false,
      "stateMutability": "view",
      "type": "function"
    },
    {
      "constant": true,
      "inputs": [
        {
          "internalType": "uint256",
          "name": "",
          "type": "uint256"
        }
      ],
      "name": "products",
      "outputs": [
        {
          "internalType": "uint256",
          "name": "productId",
          "type": "uint256"
        },
        {
          "internalType": "string",
          "name": "productName",
          "type": "string"
        },
        {
          "internalType": "string",
          "name": "productType",
          "type": "string"
        },
        {
          "internalType": "string",
          "name": "orginator",
          "type": "string"
        },
        {
          "internalType": "string",
          "name": "ownerEmail",
          "type": "string"
        },
        {
          "internalType": "uint256",
          "name": "timestamp",
          "type": "uint256"
        },
        {
          "internalType": "uint256",
          "name": "price",
          "type": "uint256"
        },
        {
          "internalType": "address payable",
          "name": "owner",
          "type": "address"
        },
        {
          "internalType": "bool",
          "name": "inStore",
          "type": "bool"
        },
        {
          "internalType": "bool",
          "name": "license",
          "type": "bool"
        }
      ],
      "payable": false,
      "stateMutability": "view",
      "type": "function"
    },
    {
      "constant": false,
      "inputs": [
        {
          "internalType": "string",
          "name": "_productName",
          "type": "string"
        },
        {
          "internalType": "string",
          "name": "_productType",
          "type": "string"
        },
        {
          "internalType": "string",
          "name": "_email",
          "type": "string"
        },
        {
          "internalType": "uint256",
          "name": "_price",
          "type": "uint256"
        },
        {
          "internalType": "bool",
          "name": "_inStore",
          "type": "bool"
        },
        {
          "internalType": "bool",
          "name": "_license",
          "type": "bool"
        }
      ],
      "name": "createProduct",
      "outputs": [],
      "payable": false,
      "stateMutability": "nonpayable",
      "type": "function"
    },
    {
      "constant": false,
      "inputs": [
        {
          "internalType": "uint256",
          "name": "_productId",
          "type": "uint256"
        },
        {
          "internalType": "uint256",
          "name": "_price",
          "type": "uint256"
        },
        {
          "internalType": "bool",
          "name": "_inStore",
          "type": "bool"
        },
        {
          "internalType": "bool",
          "name": "_license",
          "type": "bool"
        }
      ],
      "name": "editProduct",
      "outputs": [],
      "payable": false,
      "stateMutability": "nonpayable",
      "type": "function"
    },
    {
      "constant": false,
      "inputs": [
        {
          "internalType": "uint256",
          "name": "_productId",
          "type": "uint256"
        },
        {
          "internalType": "string",
          "name": "_productName",
          "type": "string"
        },
        {
          "internalType": "string",
          "name": "_owner",
          "type": "string"
        },
        {
          "internalType": "uint256",
          "name": "_licenseFee",
          "type": "uint256"
        },
        {
          "internalType": "uint256",
          "name": "_term1StartDate",
          "type": "uint256"
        },
        {
          "internalType": "uint256",
          "name": "_term1EndDate",
          "type": "uint256"
        },
        {
          "internalType": "string",
          "name": "_term2",
          "type": "string"
        }
      ],
      "name": "addLicense",
      "outputs": [],
      "payable": false,
      "stateMutability": "nonpayable",
      "type": "function"
    }
  ],
  "bytecode": "0x608060405234801561001057600080fd5b50611b2a806100206000396000f3fe608060405234801561001057600080fd5b506004361061007d5760003560e01c8063afa310831161005b578063afa31083146106aa578063c8cd6b14146108b5578063d98dce4714610905578063e0f6ef87146109235761007d565b806308d1b58e1461008257806352cbc6dc146102505780637acc0b2014610461575b600080fd5b6100ae6004803603602081101561009857600080fd5b8101908080359060200190929190505050610941565b6040518089815260200180602001806020018873ffffffffffffffffffffffffffffffffffffffff1673ffffffffffffffffffffffffffffffffffffffff1681526020018781526020018681526020018581526020018060200184810384528b818151815260200191508051906020019080838360005b83811015610140578082015181840152602081019050610125565b50505050905090810190601f16801561016d5780820380516001836020036101000a031916815260200191505b5084810383528a818151815260200191508051906020019080838360005b838110156101a657808201518184015260208101905061018b565b50505050905090810190601f1680156101d35780820380516001836020036101000a031916815260200191505b50848103825285818151815260200191508051906020019080838360005b8381101561020c5780820151818401526020810190506101f1565b50505050905090810190601f1680156102395780820380516001836020036101000a031916815260200191505b509b50505050505050505050505060405180910390f35b61045f600480360360e081101561026657600080fd5b81019080803590602001909291908035906020019064010000000081111561028d57600080fd5b82018360208201111561029f57600080fd5b803590602001918460018302840111640100000000831117156102c157600080fd5b91908080601f016020809104026020016040519081016040528093929190818152602001838380828437600081840152601f19601f8201169050808301925050505050505091929192908035906020019064010000000081111561032457600080fd5b82018360208201111561033657600080fd5b8035906020019184600183028401116401000000008311171561035857600080fd5b91908080601f016020809104026020016040519081016040528093929190818152602001838380828437600081840152601f19601f820116905080830192505050505050509192919290803590602001909291908035906020019092919080359060200190929190803590602001906401000000008111156103d957600080fd5b8201836020820111156103eb57600080fd5b8035906020019184600183028401116401000000008311171561040d57600080fd5b91908080601f016020809104026020016040519081016040528093929190818152602001838380828437600081840152601f19601f820116905080830192505050505050509192919290505050610b71565b005b61048d6004803603602081101561047757600080fd5b8101908080359060200190929190505050610e82565b604051808b8152602001806020018060200180602001806020018a81526020018981526020018873ffffffffffffffffffffffffffffffffffffffff1673ffffffffffffffffffffffffffffffffffffffff168152602001871515151581526020018615151515815260200185810385528e818151815260200191508051906020019080838360005b83811015610531578082015181840152602081019050610516565b50505050905090810190601f16801561055e5780820380516001836020036101000a031916815260200191505b5085810384528d818151815260200191508051906020019080838360005b8381101561059757808201518184015260208101905061057c565b50505050905090810190601f1680156105c45780820380516001836020036101000a031916815260200191505b5085810383528c818151815260200191508051906020019080838360005b838110156105fd5780820151818401526020810190506105e2565b50505050905090810190601f16801561062a5780820380516001836020036101000a031916815260200191505b5085810382528b818151815260200191508051906020019080838360005b83811015610663578082015181840152602081019050610648565b50505050905090810190601f1680156106905780820380516001836020036101000a031916815260200191505b509e50505050505050505050505050505060405180910390f35b6108b3600480360360c08110156106c057600080fd5b81019080803590602001906401000000008111156106dd57600080fd5b8201836020820111156106ef57600080fd5b8035906020019184600183028401116401000000008311171561071157600080fd5b91908080601f016020809104026020016040519081016040528093929190818152602001838380828437600081840152601f19601f8201169050808301925050505050505091929192908035906020019064010000000081111561077457600080fd5b82018360208201111561078657600080fd5b803590602001918460018302840111640100000000831117156107a857600080fd5b91908080601f016020809104026020016040519081016040528093929190818152602001838380828437600081840152601f19601f8201169050808301925050505050505091929192908035906020019064010000000081111561080b57600080fd5b82018360208201111561081d57600080fd5b8035906020019184600183028401116401000000008311171561083f57600080fd5b91908080601f016020809104026020016040519081016040528093929190818152602001838380828437600081840152601f19601f82011690508083019250505050505050919291929080359060200190929190803515159060200190929190803515159060200190929190505050611170565b005b610903600480360360808110156108cb57600080fd5b810190808035906020019092919080359060200190929190803515159060200190929190803515159060200190929190505050611566565b005b61090d6119d7565b6040518082815260200191505060405180910390f35b61092b6119dd565b6040518082815260200191505060405180910390f35b6003602052806000526040600020600091509050806000015490806001018054600181600116156101000203166002900480601f0160208091040260200160405190810160405280929190818152602001828054600181600116156101000203166002900480156109f35780601f106109c8576101008083540402835291602001916109f3565b820191906000526020600020905b8154815290600101906020018083116109d657829003601f168201915b505050505090806002018054600181600116156101000203166002900480601f016020809104026020016040519081016040528092919081815260200182805460018160011615610100020316600290048015610a915780601f10610a6657610100808354040283529160200191610a91565b820191906000526020600020905b815481529060010190602001808311610a7457829003601f168201915b5050505050908060030160009054906101000a900473ffffffffffffffffffffffffffffffffffffffff1690806004015490806005015490806006015490806007018054600181600116156101000203166002900480601f016020809104026020016040519081016040528092919081815260200182805460018160011615610100020316600290048015610b675780601f10610b3c57610100808354040283529160200191610b67565b820191906000526020600020905b815481529060010190602001808311610b4a57829003601f168201915b5050505050905088565b6001600081548092919060010191905055506040518061010001604052808881526020018781526020018681526020013373ffffffffffffffffffffffffffffffffffffffff1681526020018581526020018481526020018381526020018281525060036000898152602001908152602001600020600082015181600001556020820151816001019080519060200190610c0c9291906119e3565b506040820151816002019080519060200190610c299291906119e3565b5060608201518160030160006101000a81548173ffffffffffffffffffffffffffffffffffffffff021916908373ffffffffffffffffffffffffffffffffffffffff1602179055506080820151816004015560a0820151816005015560c0820151816006015560e0820151816007019080519060200190610cab9291906119e3565b509050507fcb7652a15880fa6af9667c8d9f83dab2d441f1b53fd9604e94a1ecf3efb832fa87878733888888886040518089815260200180602001806020018873ffffffffffffffffffffffffffffffffffffffff1673ffffffffffffffffffffffffffffffffffffffff1681526020018781526020018681526020018581526020018060200184810384528b818151815260200191508051906020019080838360005b83811015610d6a578082015181840152602081019050610d4f565b50505050905090810190601f168015610d975780820380516001836020036101000a031916815260200191505b5084810383528a818151815260200191508051906020019080838360005b83811015610dd0578082015181840152602081019050610db5565b50505050905090810190601f168015610dfd5780820380516001836020036101000a031916815260200191505b50848103825285818151815260200191508051906020019080838360005b83811015610e36578082015181840152602081019050610e1b565b50505050905090810190601f168015610e635780820380516001836020036101000a031916815260200191505b509b50505050505050505050505060405180910390a150505050505050565b6002602052806000526040600020600091509050806000015490806001018054600181600116156101000203166002900480601f016020809104026020016040519081016040528092919081815260200182805460018160011615610100020316600290048015610f345780601f10610f0957610100808354040283529160200191610f34565b820191906000526020600020905b815481529060010190602001808311610f1757829003601f168201915b505050505090806002018054600181600116156101000203166002900480601f016020809104026020016040519081016040528092919081815260200182805460018160011615610100020316600290048015610fd25780601f10610fa757610100808354040283529160200191610fd2565b820191906000526020600020905b815481529060010190602001808311610fb557829003601f168201915b505050505090806003018054600181600116156101000203166002900480601f0160208091040260200160405190810160405280929190818152602001828054600181600116156101000203166002900480156110705780601f1061104557610100808354040283529160200191611070565b820191906000526020600020905b81548152906001019060200180831161105357829003601f168201915b505050505090806004018054600181600116156101000203166002900480601f01602080910402602001604051908101604052809291908181526020018280546001816001161561010002031660029004801561110e5780601f106110e35761010080835404028352916020019161110e565b820191906000526020600020905b8154815290600101906020018083116110f157829003601f168201915b5050505050908060050154908060060154908060070160009054906101000a900473ffffffffffffffffffffffffffffffffffffffff16908060070160149054906101000a900460ff16908060070160159054906101000a900460ff1690508a565b600080815480929190600101919050555060405180610140016040528060005481526020018781526020018681526020018581526020018581526020014281526020018481526020013373ffffffffffffffffffffffffffffffffffffffff1681526020018315158152602001821515815250600260008054815260200190815260200160002060008201518160000155602082015181600101908051906020019061121d9291906119e3565b50604082015181600201908051906020019061123a9291906119e3565b5060608201518160030190805190602001906112579291906119e3565b5060808201518160040190805190602001906112749291906119e3565b5060a0820151816005015560c0820151816006015560e08201518160070160006101000a81548173ffffffffffffffffffffffffffffffffffffffff021916908373ffffffffffffffffffffffffffffffffffffffff1602179055506101008201518160070160146101000a81548160ff0219169083151502179055506101208201518160070160156101000a81548160ff0219169083151502179055509050507fcf54b2a365a185e1e0242f6e003ee63004bbfe6d8e9c4c0869b8a6870dd8a297600054878787884289338a8a604051808b8152602001806020018060200180602001806020018a81526020018981526020018873ffffffffffffffffffffffffffffffffffffffff1673ffffffffffffffffffffffffffffffffffffffff168152602001871515151581526020018615151515815260200185810385528e818151815260200191508051906020019080838360005b838110156113e65780820151818401526020810190506113cb565b50505050905090810190601f1680156114135780820380516001836020036101000a031916815260200191505b5085810384528d818151815260200191508051906020019080838360005b8381101561144c578082015181840152602081019050611431565b50505050905090810190601f1680156114795780820380516001836020036101000a031916815260200191505b5085810383528c818151815260200191508051906020019080838360005b838110156114b2578082015181840152602081019050611497565b50505050905090810190601f1680156114df5780820380516001836020036101000a031916815260200191505b5085810382528b818151815260200191508051906020019080838360005b838110156115185780820151818401526020810190506114fd565b50505050905090810190601f1680156115455780820380516001836020036101000a031916815260200191505b509e50505050505050505050505050505060405180910390a1505050505050565b61156e611a63565b600260008681526020019081526020016000206040518061014001604052908160008201548152602001600182018054600181600116156101000203166002900480601f0160208091040260200160405190810160405280929190818152602001828054600181600116156101000203166002900480156116305780601f1061160557610100808354040283529160200191611630565b820191906000526020600020905b81548152906001019060200180831161161357829003601f168201915b50505050508152602001600282018054600181600116156101000203166002900480601f0160208091040260200160405190810160405280929190818152602001828054600181600116156101000203166002900480156116d25780601f106116a7576101008083540402835291602001916116d2565b820191906000526020600020905b8154815290600101906020018083116116b557829003601f168201915b50505050508152602001600382018054600181600116156101000203166002900480601f0160208091040260200160405190810160405280929190818152602001828054600181600116156101000203166002900480156117745780601f1061174957610100808354040283529160200191611774565b820191906000526020600020905b81548152906001019060200180831161175757829003601f168201915b50505050508152602001600482018054600181600116156101000203166002900480601f0160208091040260200160405190810160405280929190818152602001828054600181600116156101000203166002900480156118165780601f106117eb57610100808354040283529160200191611816565b820191906000526020600020905b8154815290600101906020018083116117f957829003601f168201915b5050505050815260200160058201548152602001600682015481526020016007820160009054906101000a900473ffffffffffffffffffffffffffffffffffffffff1673ffffffffffffffffffffffffffffffffffffffff1673ffffffffffffffffffffffffffffffffffffffff1681526020016007820160149054906101000a900460ff161515151581526020016007820160159054906101000a900460ff1615151515815250509050600081600001511180156118db5750600054816000015111155b61194d576040517f08c379a00000000000000000000000000000000000000000000000000000000081526004018080602001828103825260118152602001807f50726f64756374204e6f7420466f756e6400000000000000000000000000000081525060200191505060405180910390fd5b838160c0018181525050828161010001901515908115158152505081816101200190151590811515815250507fd9b21cb2e70669dabd1fd7b4ec3bbde63efa7b8a82aaa24e478455b41348fcd28585858560405180858152602001848152602001831515151581526020018215151515815260200194505050505060405180910390a15050505050565b60015481565b60005481565b828054600181600116156101000203166002900490600052602060002090601f016020900481019282601f10611a2457805160ff1916838001178555611a52565b82800160010185558215611a52579182015b82811115611a51578251825591602001919060010190611a36565b5b509050611a5f9190611ad0565b5090565b60405180610140016040528060008152602001606081526020016060815260200160608152602001606081526020016000815260200160008152602001600073ffffffffffffffffffffffffffffffffffffffff1681526020016000151581526020016000151581525090565b611af291905b80821115611aee576000816000905550600101611ad6565b5090565b9056fea265627a7a723158209c91e4ef58f998bc3ecd3b7c17b482dbc7972d6d9bbdf31ef1178f72e479212564736f6c63430005100032",
  "source": "pragma solidity >=0.5.0;\n\ncontract heroledger {\n    uint256 public productCount;\n    uint256 public licenseProductCount;\n\n    mapping(uint256 => product) public products;\n    mapping(uint256 => licensedProduct) public licensedProducts;\n\n    struct licensedProduct {\n        uint256 productId;\n        string productName;\n        string owner;\n        address ownerAddress;\n        uint256 licenseFee;\n        uint256 term1StartDate;\n        uint256 term1EndDate;\n        string term2;\n    }\n\n    struct product {\n        uint256 productId;\n        string productName;\n        string productType;\n        string orginator;\n        string ownerEmail;\n        uint256 timestamp;\n        uint256 price;\n        address payable owner;\n        bool inStore;\n        bool license;\n    }\n\n    event licenseCreated(\n        uint256 productId,\n        string productName,\n        string owner,\n        address ownerAddress,\n        uint256 licenseFee,\n        uint256 term1StartDate,\n        uint256 term1EndDate,\n        string term2\n    );\n\n    event productCreated(\n        uint256 productId,\n        string productName,\n        string productType,\n        string originator,\n        string ownerEmail,\n        uint256 timestamp,\n        uint256 price,\n        address owner,\n        bool inStore,\n        bool license\n    );\n\n    event productEdited(\n        uint256 productId,\n        uint256 price,\n        bool inStore,\n        bool license\n    );\n\n    function createProduct(\n        string memory _productName,\n        string memory _productType,\n        string memory _email,\n        uint256 _price,\n        bool _inStore,\n        bool _license\n    ) public {\n        productCount++;\n        products[productCount] = product(\n            productCount,\n            _productName,\n            _productType,\n            _email,\n            _email,\n            block.timestamp,\n            _price,\n            msg.sender,\n            _inStore,\n            _license\n        );\n\n        emit productCreated(\n            productCount,\n            _productName,\n            _productType,\n            _email,\n            _email,\n            block.timestamp,\n            _price,\n            msg.sender,\n            _inStore,\n            _license\n        );\n    }\n\n    function editProduct(\n        uint256 _productId,\n        uint256 _price,\n        bool _inStore,\n        bool _license\n    ) public {\n        product memory _product = products[_productId];\n\n        require(\n            _product.productId > 0 && _product.productId <= productCount,\n            \"Product Not Found\"\n        );\n\n        _product.price = _price;\n        _product.inStore = _inStore;\n        _product.license = _license;\n\n        emit productEdited(_productId, _price, _inStore, _license);\n    }\n\n    function addLicense(\n        uint256 _productId,\n        string memory _productName,\n        string memory _owner,\n        uint256 _licenseFee,\n        uint256 _term1StartDate,\n        uint256 _term1EndDate,\n        string memory _term2\n    ) public {\n        licenseProductCount++;\n        licensedProducts[_productId] = licensedProduct(\n            _productId,\n            _productName,\n            _owner,\n            msg.sender,\n            _licenseFee,\n            _term1StartDate,\n            _term1EndDate,\n            _term2\n        );\n\n        emit licenseCreated(\n            _productId,\n            _productName,\n            _owner,\n            msg.sender,\n            _licenseFee,\n            _term1StartDate,\n            _term1EndDate,\n            _term2\n        );\n    }\n}\n",
  "sourcePath": "/media/dinesh/Workstations/Blockchain/Mock GCSE DApp/Heroledger Project/Heroledger/src/blockchain/contracts/heroledger.sol",
  "compiler": {
    "name": "solc",
    "version": "0.5.16+commit.9c3226ce.Emscripten.clang"
  },
  "schemaVersion": "3.2.2",
  "updatedAt": "2020-09-02T05:45:52.321Z",
  "devdoc": {
    "methods": {}
  },
  "userdoc": {
    "methods": {}
  }
}