{
  "contractName": "heroledger",
  "abi": [
    {
      "anonymous": false,
      "inputs": [
        {
          "indexed": false,
          "internalType": "uint256",
          "name": "productId",
          "type": "uint256"
        },
        {
          "indexed": false,
          "internalType": "string",
          "name": "productName",
          "type": "string"
        },
        {
          "indexed": false,
          "internalType": "string",
          "name": "productType",
          "type": "string"
        },
        {
          "indexed": false,
          "internalType": "string",
          "name": "user",
          "type": "string"
        },
        {
          "indexed": false,
          "internalType": "string",
          "name": "originator",
          "type": "string"
        },
        {
          "indexed": false,
          "internalType": "string",
          "name": "ownerEmail",
          "type": "string"
        },
        {
          "indexed": false,
          "internalType": "uint256",
          "name": "timestamp",
          "type": "uint256"
        },
        {
          "indexed": false,
          "internalType": "uint256",
          "name": "price",
          "type": "uint256"
        },
        {
          "indexed": false,
          "internalType": "address",
          "name": "owner",
          "type": "address"
        },
        {
          "indexed": false,
          "internalType": "bool",
          "name": "inStore",
          "type": "bool"
        }
      ],
      "name": "productCreated",
      "type": "event"
    },
    {
      "constant": true,
      "inputs": [],
      "name": "productCount",
      "outputs": [
        {
          "internalType": "uint256",
          "name": "",
          "type": "uint256"
        }
      ],
      "payable": false,
      "stateMutability": "view",
      "type": "function"
    },
    {
      "constant": true,
      "inputs": [
        {
          "internalType": "uint256",
          "name": "",
          "type": "uint256"
        }
      ],
      "name": "products",
      "outputs": [
        {
          "internalType": "uint256",
          "name": "productId",
          "type": "uint256"
        },
        {
          "internalType": "string",
          "name": "productName",
          "type": "string"
        },
        {
          "internalType": "string",
          "name": "productType",
          "type": "string"
        },
        {
          "internalType": "string",
          "name": "user",
          "type": "string"
        },
        {
          "internalType": "string",
          "name": "orginator",
          "type": "string"
        },
        {
          "internalType": "string",
          "name": "ownerEmail",
          "type": "string"
        },
        {
          "internalType": "uint256",
          "name": "timestamp",
          "type": "uint256"
        },
        {
          "internalType": "uint256",
          "name": "price",
          "type": "uint256"
        },
        {
          "internalType": "address payable",
          "name": "owner",
          "type": "address"
        },
        {
          "internalType": "bool",
          "name": "inStore",
          "type": "bool"
        }
      ],
      "payable": false,
      "stateMutability": "view",
      "type": "function"
    },
    {
      "constant": false,
      "inputs": [
        {
          "internalType": "string",
          "name": "_productName",
          "type": "string"
        },
        {
          "internalType": "string",
          "name": "_productType",
          "type": "string"
        },
        {
          "internalType": "string",
          "name": "_user",
          "type": "string"
        },
        {
          "internalType": "string",
          "name": "_email",
          "type": "string"
        },
        {
          "internalType": "uint256",
          "name": "_price",
          "type": "uint256"
        },
        {
          "internalType": "bool",
          "name": "_inStore",
          "type": "bool"
        }
      ],
      "name": "createProduct",
      "outputs": [],
      "payable": false,
      "stateMutability": "nonpayable",
      "type": "function"
    }
  ],
  "bytecode": "0x608060405234801561001057600080fd5b50610e4f806100206000396000f3fe608060405234801561001057600080fd5b50600436106100415760003560e01c8063327e75fb146100465780637acc0b20146102dc578063e0f6ef8714610586575b600080fd5b6102da600480360360c081101561005c57600080fd5b810190808035906020019064010000000081111561007957600080fd5b82018360208201111561008b57600080fd5b803590602001918460018302840111640100000000831117156100ad57600080fd5b91908080601f016020809104026020016040519081016040528093929190818152602001838380828437600081840152601f19601f8201169050808301925050505050505091929192908035906020019064010000000081111561011057600080fd5b82018360208201111561012257600080fd5b8035906020019184600183028401116401000000008311171561014457600080fd5b91908080601f016020809104026020016040519081016040528093929190818152602001838380828437600081840152601f19601f820116905080830192505050505050509192919290803590602001906401000000008111156101a757600080fd5b8201836020820111156101b957600080fd5b803590602001918460018302840111640100000000831117156101db57600080fd5b91908080601f016020809104026020016040519081016040528093929190818152602001838380828437600081840152601f19601f8201169050808301925050505050505091929192908035906020019064010000000081111561023e57600080fd5b82018360208201111561025057600080fd5b8035906020019184600183028401116401000000008311171561027257600080fd5b91908080601f016020809104026020016040519081016040528093929190818152602001838380828437600081840152601f19601f820116905080830192505050505050509192919290803590602001909291908035151590602001909291905050506105a4565b005b610308600480360360208110156102f257600080fd5b81019080803590602001909291905050506109f6565b604051808b815260200180602001806020018060200180602001806020018a81526020018981526020018873ffffffffffffffffffffffffffffffffffffffff1673ffffffffffffffffffffffffffffffffffffffff1681526020018715151515815260200186810386528f818151815260200191508051906020019080838360005b838110156103a657808201518184015260208101905061038b565b50505050905090810190601f1680156103d35780820380516001836020036101000a031916815260200191505b5086810385528e818151815260200191508051906020019080838360005b8381101561040c5780820151818401526020810190506103f1565b50505050905090810190601f1680156104395780820380516001836020036101000a031916815260200191505b5086810384528d818151815260200191508051906020019080838360005b83811015610472578082015181840152602081019050610457565b50505050905090810190601f16801561049f5780820380516001836020036101000a031916815260200191505b5086810383528c818151815260200191508051906020019080838360005b838110156104d85780820151818401526020810190506104bd565b50505050905090810190601f1680156105055780820380516001836020036101000a031916815260200191505b5086810382528b818151815260200191508051906020019080838360005b8381101561053e578082015181840152602081019050610523565b50505050905090810190601f16801561056b5780820380516001836020036101000a031916815260200191505b509f5050505050505050505050505050505060405180910390f35b61058e610d6f565b6040518082815260200191505060405180910390f35b600080815480929190600101919050555060405180610140016040528060005481526020018781526020018681526020018581526020018481526020018481526020014281526020018381526020013373ffffffffffffffffffffffffffffffffffffffff168152602001821515815250600160008054815260200190815260200160002060008201518160000155602082015181600101908051906020019061064f929190610d75565b50604082015181600201908051906020019061066c929190610d75565b506060820151816003019080519060200190610689929190610d75565b5060808201518160040190805190602001906106a6929190610d75565b5060a08201518160050190805190602001906106c3929190610d75565b5060c0820151816006015560e082015181600701556101008201518160080160006101000a81548173ffffffffffffffffffffffffffffffffffffffff021916908373ffffffffffffffffffffffffffffffffffffffff1602179055506101208201518160080160146101000a81548160ff0219169083151502179055509050507fb7cbbb8691e0beed922a07cc841c83c345c59acd52db9567ab5edefe352f230660005487878787884289338a604051808b815260200180602001806020018060200180602001806020018a81526020018981526020018873ffffffffffffffffffffffffffffffffffffffff1673ffffffffffffffffffffffffffffffffffffffff1681526020018715151515815260200186810386528f818151815260200191508051906020019080838360005b8381101561080f5780820151818401526020810190506107f4565b50505050905090810190601f16801561083c5780820380516001836020036101000a031916815260200191505b5086810385528e818151815260200191508051906020019080838360005b8381101561087557808201518184015260208101905061085a565b50505050905090810190601f1680156108a25780820380516001836020036101000a031916815260200191505b5086810384528d818151815260200191508051906020019080838360005b838110156108db5780820151818401526020810190506108c0565b50505050905090810190601f1680156109085780820380516001836020036101000a031916815260200191505b5086810383528c818151815260200191508051906020019080838360005b83811015610941578082015181840152602081019050610926565b50505050905090810190601f16801561096e5780820380516001836020036101000a031916815260200191505b5086810382528b818151815260200191508051906020019080838360005b838110156109a757808201518184015260208101905061098c565b50505050905090810190601f1680156109d45780820380516001836020036101000a031916815260200191505b509f5050505050505050505050505050505060405180910390a1505050505050565b6001602052806000526040600020600091509050806000015490806001018054600181600116156101000203166002900480601f016020809104026020016040519081016040528092919081815260200182805460018160011615610100020316600290048015610aa85780601f10610a7d57610100808354040283529160200191610aa8565b820191906000526020600020905b815481529060010190602001808311610a8b57829003601f168201915b505050505090806002018054600181600116156101000203166002900480601f016020809104026020016040519081016040528092919081815260200182805460018160011615610100020316600290048015610b465780601f10610b1b57610100808354040283529160200191610b46565b820191906000526020600020905b815481529060010190602001808311610b2957829003601f168201915b505050505090806003018054600181600116156101000203166002900480601f016020809104026020016040519081016040528092919081815260200182805460018160011615610100020316600290048015610be45780601f10610bb957610100808354040283529160200191610be4565b820191906000526020600020905b815481529060010190602001808311610bc757829003601f168201915b505050505090806004018054600181600116156101000203166002900480601f016020809104026020016040519081016040528092919081815260200182805460018160011615610100020316600290048015610c825780601f10610c5757610100808354040283529160200191610c82565b820191906000526020600020905b815481529060010190602001808311610c6557829003601f168201915b505050505090806005018054600181600116156101000203166002900480601f016020809104026020016040519081016040528092919081815260200182805460018160011615610100020316600290048015610d205780601f10610cf557610100808354040283529160200191610d20565b820191906000526020600020905b815481529060010190602001808311610d0357829003601f168201915b5050505050908060060154908060070154908060080160009054906101000a900473ffffffffffffffffffffffffffffffffffffffff16908060080160149054906101000a900460ff1690508a565b60005481565b828054600181600116156101000203166002900490600052602060002090601f016020900481019282601f10610db657805160ff1916838001178555610de4565b82800160010185558215610de4579182015b82811115610de3578251825591602001919060010190610dc8565b5b509050610df19190610df5565b5090565b610e1791905b80821115610e13576000816000905550600101610dfb565b5090565b9056fea265627a7a72315820418816fa1162b4824f54209beda4c4e5ffe5fab83985d7ac798299ce82d1927e64736f6c63430005100032",
  "source": "pragma solidity >=0.5.0;\n\ncontract heroledger {\n    uint256 public productCount;\n\n    mapping(uint256 => product) public products;\n\n    struct product {\n        uint256 productId;\n        string productName;\n        string productType;\n        string user;\n        string orginator;\n        string ownerEmail;\n        uint256 timestamp;\n        uint256 price;\n        address payable owner;\n        bool inStore;\n    }\n\n    event productCreated(\n        uint256 productId,\n        string productName,\n        string productType,\n        string user,\n        string originator,\n        string ownerEmail,\n        uint256 timestamp,\n        uint256 price,\n        address owner,\n        bool inStore\n    );\n\n    function createProduct(\n        string memory _productName,\n        string memory _productType,\n        string memory _user,\n        string memory _email,\n        uint256 _price,\n        bool _inStore\n    ) public {\n        productCount++;\n        products[productCount] = product(\n            productCount,\n            _productName,\n            _productType,\n            _user,\n            _email,\n            _email,\n            block.timestamp,\n            _price,\n            msg.sender,\n            _inStore\n        );\n\n        emit productCreated (\n            productCount,\n            _productName,\n            _productType,\n            _user,\n            _email,\n            _email,\n            block.timestamp,\n            _price,\n            msg.sender,\n            _inStore\n        );\n    }\n}\n",
  "sourcePath": "/media/dinesh/Workstations/Blockchain/Mock GCSE DApp/Heroledger Project/Heroledger/src/blockchain/contracts/heroledger.sol",
  "compiler": {
    "name": "solc",
    "version": "0.5.16+commit.9c3226ce.Emscripten.clang"
  },
  "schemaVersion": "3.2.2",
  "updatedAt": "2020-08-28T07:09:05.987Z",
  "devdoc": {
    "methods": {}
  },
  "userdoc": {
    "methods": {}
  }
}